{
  "contractName": "MultiBalances",
  "abi": [
    {
      "constant": true,
      "inputs": [
        {
          "name": "contractAddress",
          "type": "address"
        },
        {
          "name": "addresses",
          "type": "address[]"
        }
      ],
      "name": "getBalances",
      "outputs": [
        {
          "name": "",
          "type": "uint256"
        }
      ],
      "payable": false,
      "stateMutability": "view",
      "type": "function"
    }
  ],
  "bytecode": "0x608060405234801561001057600080fd5b506102a0806100206000396000f300608060405260043610610041576000357c0100000000000000000000000000000000000000000000000000000000900463ffffffff1680636a385ae914610046575b600080fd5b34801561005257600080fd5b506100ca600480360381019080803573ffffffffffffffffffffffffffffffffffffffff169060200190929190803590602001908201803590602001908080602002602001604051908101604052809392919081815260200183836020028082843782019150505050505091929192905050506100e0565b6040518082815260200191505060405180910390f35b600080600080606060008794506000935086519250826040519080825280602002602001820160405280156101245781602001602082028038833980820191505090505b509150600090505b82811015610266578473ffffffffffffffffffffffffffffffffffffffff166370a08231888381518110151561015e57fe5b906020019060200201516040518263ffffffff167c0100000000000000000000000000000000000000000000000000000000028152600401808273ffffffffffffffffffffffffffffffffffffffff1673ffffffffffffffffffffffffffffffffffffffff168152602001915050602060405180830381600087803b1580156101e657600080fd5b505af11580156101fa573d6000803e3d6000fd5b505050506040513d602081101561021057600080fd5b8101908080519060200190929190505050828281518110151561022f57fe5b9060200190602002018181525050818181518110151561024b57fe5b9060200190602002015184019350808060010191505061012c565b8395505050505050929150505600a165627a7a72305820dbce52006f7f8f69268c754fe2ff0e5091428d0ff6dbfab454bb98f3882ad5990029",
  "source": "pragma solidity ^0.4.18;\r\n\r\nimport \"./ConvertLib.sol\";\r\nimport \"./MetaCoin.sol\";\r\n\r\ncontract MultiBalances { \r\n    function getBalances(address contractAddress, address[] addresses) public view returns (uint256){\r\n        Token erc20 = Token(contractAddress);\r\n        uint sum = 0;\r\n        uint addrLength = addresses.length;\r\n        uint256[]  memory balances = new uint256[](addrLength);\r\n        for(uint i = 0; i<addrLength; i++){\r\n            balances[i] = erc20.balanceOf(addresses[i]);\r\n            sum += balances[i];\r\n        }\r\n        return sum;\r\n    } \r\n}",
  "sourcePath": "E:\\Eth\\erc20-truffle\\contracts\\MultiBalances.sol",
  "compiler": {
    "name": "solc",
    "version": "0.4.24+commit.e67f0147.Emscripten.clang"
  },
  "schemaVersion": "2.0.1",
  "updatedAt": "2018-11-23T09:45:16.641Z"
}